{
  "contractName": "OraclizeTest",
  "abi": [
    {
      "constant": true,
      "inputs": [],
      "name": "ETHUSD",
      "outputs": [
        {
          "name": "",
          "type": "string"
        }
      ],
      "payable": false,
      "stateMutability": "view",
      "type": "function"
    },
    {
      "inputs": [],
      "payable": true,
      "stateMutability": "payable",
      "type": "constructor"
    },
    {
      "payable": false,
      "stateMutability": "nonpayable",
      "type": "fallback"
    },
    {
      "anonymous": false,
      "inputs": [
        {
          "indexed": false,
          "name": "description",
          "type": "string"
        }
      ],
      "name": "LogInfo",
      "type": "event"
    },
    {
      "anonymous": false,
      "inputs": [
        {
          "indexed": false,
          "name": "price",
          "type": "string"
        }
      ],
      "name": "LogPriceUpdate",
      "type": "event"
    },
    {
      "anonymous": false,
      "inputs": [
        {
          "indexed": true,
          "name": "_owner",
          "type": "address"
        },
        {
          "indexed": true,
          "name": "_balance",
          "type": "uint256"
        }
      ],
      "name": "LogUpdate",
      "type": "event"
    },
    {
      "constant": false,
      "inputs": [
        {
          "name": "myid",
          "type": "bytes32"
        },
        {
          "name": "result",
          "type": "string"
        }
      ],
      "name": "__callback",
      "outputs": [],
      "payable": false,
      "stateMutability": "nonpayable",
      "type": "function"
    },
    {
      "constant": false,
      "inputs": [
        {
          "name": "myid",
          "type": "bytes32"
        },
        {
          "name": "result",
          "type": "string"
        },
        {
          "name": "proof",
          "type": "bytes"
        }
      ],
      "name": "__callback",
      "outputs": [],
      "payable": false,
      "stateMutability": "nonpayable",
      "type": "function"
    },
    {
      "constant": false,
      "inputs": [],
      "name": "getBalance",
      "outputs": [
        {
          "name": "_balance",
          "type": "uint256"
        }
      ],
      "payable": false,
      "stateMutability": "nonpayable",
      "type": "function"
    },
    {
      "constant": false,
      "inputs": [],
      "name": "update",
      "outputs": [],
      "payable": true,
      "stateMutability": "payable",
      "type": "function"
    }
  ],
  "bytecode": "0x606060405233600560006101000a81548173ffffffffffffffffffffffffffffffffffffffff021916908373ffffffffffffffffffffffffffffffffffffffff1602179055503073ffffffffffffffffffffffffffffffffffffffff1631600560009054906101000a900473ffffffffffffffffffffffffffffffffffffffff1673ffffffffffffffffffffffffffffffffffffffff167fd176e7c6abd789c341ab22cef27aa1fbc7461f5f9d6a6e55faa0b9df32a7051460405160405180910390a37398d52c3c3959b35496477510920e2c99e6e9cac06000806101000a81548173ffffffffffffffffffffffffffffffffffffffff021916908373ffffffffffffffffffffffffffffffffffffffff1602179055506200017d60017f01000000000000000000000000000000000000000000000000000000000000000260107f01000000000000000000000000000000000000000000000000000000000000000217620001a16401000000000262001793176401000000009004565b6200019b6200050a6401000000000262000463176401000000009004565b62001715565b60008060009054906101000a900473ffffffffffffffffffffffffffffffffffffffff1673ffffffffffffffffffffffffffffffffffffffff1614806200022757506000620002256000809054906101000a900473ffffffffffffffffffffffffffffffffffffffff16620007a06401000000000262001229176401000000009004565b145b156200024f576200024d6000620007ab6401000000000262001234176401000000009004565b505b6000809054906101000a900473ffffffffffffffffffffffffffffffffffffffff1673ffffffffffffffffffffffffffffffffffffffff166338cc48316040518163ffffffff167c0100000000000000000000000000000000000000000000000000000000028152600401602060405180830381600087803b1515620002d457600080fd5b5af11515620002e257600080fd5b5050506040518051905073ffffffffffffffffffffffffffffffffffffffff16600160009054906101000a900473ffffffffffffffffffffffffffffffffffffffff1673ffffffffffffffffffffffffffffffffffffffff1614151562000421576000809054906101000a900473ffffffffffffffffffffffffffffffffffffffff1673ffffffffffffffffffffffffffffffffffffffff166338cc48316040518163ffffffff167c0100000000000000000000000000000000000000000000000000000000028152600401602060405180830381600087803b1515620003c857600080fd5b5af11515620003d657600080fd5b50505060405180519050600160006101000a81548173ffffffffffffffffffffffffffffffffffffffff021916908373ffffffffffffffffffffffffffffffffffffffff1602179055505b600160009054906101000a900473ffffffffffffffffffffffffffffffffffffffff1673ffffffffffffffffffffffffffffffffffffffff1663688dcfd7826040518263ffffffff167c010000000000000000000000000000000000000000000000000000000002815260040180827effffffffffffffffffffffffffffffffffffffffffffffffffffffffffffff19167effffffffffffffffffffffffffffffffffffffffffffffffffffffffffffff19168152602001915050600060405180830381600087803b1515620004f657600080fd5b5af115156200050457600080fd5b50505050565b3073ffffffffffffffffffffffffffffffffffffffff1631620005766040805190810160405280600381526020017f55524c0000000000000000000000000000000000000000000000000000000000815250620007d264010000000002620009ba176401000000009004565b111562000637577ffee95ecae0c8f7f0743ec0ad254c78ab75e5ecca9f1ddcd9f11f9a98124b96bc60405180806020018281038252604b8152602001807f4f7261636c697a6520717565727920776173204e4f542073656e742c20706c6581526020017f6173652061646420736f6d652045544820746f20636f76657220666f7220746881526020017f652071756572792066656500000000000000000000000000000000000000000081525060600191505060405180910390a16200079e565b7ffee95ecae0c8f7f0743ec0ad254c78ab75e5ecca9f1ddcd9f11f9a98124b96bc6040518080602001828103825260358152602001807f4f7261636c697a65207175657279207761732073656e742c207374616e64696e81526020017f6720627920666f722074686520616e737765722e2e000000000000000000000081525060400191505060405180910390a16200079c6040805190810160405280600381526020017f55524c0000000000000000000000000000000000000000000000000000000000815250608060405190810160405280604181526020017f6a736f6e2868747470733a2f2f6170692e636f696e626173652e636f6d2f763281526020017f2f7072696365732f4554482d5553442f73706f74292e646174612e616d6f756e81526020017f740000000000000000000000000000000000000000000000000000000000000081525062000b6b6401000000000262000d1b176401000000009004565b505b565b6000813b9050919050565b6000620007cb620010bb6401000000000262001245176401000000009004565b9050919050565b6000806000809054906101000a900473ffffffffffffffffffffffffffffffffffffffff1673ffffffffffffffffffffffffffffffffffffffff1614806200085957506000620008576000809054906101000a900473ffffffffffffffffffffffffffffffffffffffff16620007a06401000000000262001229176401000000009004565b145b1562000881576200087f6000620007ab6401000000000262001234176401000000009004565b505b6000809054906101000a900473ffffffffffffffffffffffffffffffffffffffff1673ffffffffffffffffffffffffffffffffffffffff166338cc48316040518163ffffffff167c0100000000000000000000000000000000000000000000000000000000028152600401602060405180830381600087803b15156200090657600080fd5b5af115156200091457600080fd5b5050506040518051905073ffffffffffffffffffffffffffffffffffffffff16600160009054906101000a900473ffffffffffffffffffffffffffffffffffffffff1673ffffffffffffffffffffffffffffffffffffffff1614151562000a53576000809054906101000a900473ffffffffffffffffffffffffffffffffffffffff1673ffffffffffffffffffffffffffffffffffffffff166338cc48316040518163ffffffff167c0100000000000000000000000000000000000000000000000000000000028152600401602060405180830381600087803b1515620009fa57600080fd5b5af1151562000a0857600080fd5b50505060405180519050600160006101000a81548173ffffffffffffffffffffffffffffffffffffffff021916908373ffffffffffffffffffffffffffffffffffffffff1602179055505b600160009054906101000a900473ffffffffffffffffffffffffffffffffffffffff1673ffffffffffffffffffffffffffffffffffffffff1663524f3889836040518263ffffffff167c01000000000000000000000000000000000000000000000000000000000281526004018080602001828103825283818151815260200191508051906020019080838360005b8381101562000aff57808201518184015260208101905062000ae2565b50505050905090810190601f16801562000b2d5780820380516001836020036101000a031916815260200191505b5092505050602060405180830381600087803b151562000b4c57600080fd5b5af1151562000b5a57600080fd5b505050604051805190509050919050565b60008060008060009054906101000a900473ffffffffffffffffffffffffffffffffffffffff1673ffffffffffffffffffffffffffffffffffffffff16148062000bf45750600062000bf26000809054906101000a900473ffffffffffffffffffffffffffffffffffffffff16620007a06401000000000262001229176401000000009004565b145b1562000c1c5762000c1a6000620007ab6401000000000262001234176401000000009004565b505b6000809054906101000a900473ffffffffffffffffffffffffffffffffffffffff1673ffffffffffffffffffffffffffffffffffffffff166338cc48316040518163ffffffff167c0100000000000000000000000000000000000000000000000000000000028152600401602060405180830381600087803b151562000ca157600080fd5b5af1151562000caf57600080fd5b5050506040518051905073ffffffffffffffffffffffffffffffffffffffff16600160009054906101000a900473ffffffffffffffffffffffffffffffffffffffff1673ffffffffffffffffffffffffffffffffffffffff1614151562000dee576000809054906101000a900473ffffffffffffffffffffffffffffffffffffffff1673ffffffffffffffffffffffffffffffffffffffff166338cc48316040518163ffffffff167c0100000000000000000000000000000000000000000000000000000000028152600401602060405180830381600087803b151562000d9557600080fd5b5af1151562000da357600080fd5b50505060405180519050600160006101000a81548173ffffffffffffffffffffffffffffffffffffffff021916908373ffffffffffffffffffffffffffffffffffffffff1602179055505b600160009054906101000a900473ffffffffffffffffffffffffffffffffffffffff1673ffffffffffffffffffffffffffffffffffffffff1663524f3889856040518263ffffffff167c01000000000000000000000000000000000000000000000000000000000281526004018080602001828103825283818151815260200191508051906020019080838360005b8381101562000e9a57808201518184015260208101905062000e7d565b50505050905090810190601f16801562000ec85780820380516001836020036101000a031916815260200191505b5092505050602060405180830381600087803b151562000ee757600080fd5b5af1151562000ef557600080fd5b50505060405180519050905062030d403a02670de0b6b3a76400000181111562000f265760006001029150620010b4565b600160009054906101000a900473ffffffffffffffffffffffffffffffffffffffff1673ffffffffffffffffffffffffffffffffffffffff1663adf59f9982600087876040518563ffffffff167c0100000000000000000000000000000000000000000000000000000000028152600401808481526020018060200180602001838103835285818151815260200191508051906020019080838360005b8381101562000fe057808201518184015260208101905062000fc3565b50505050905090810190601f1680156200100e5780820380516001836020036101000a031916815260200191505b50838103825284818151815260200191508051906020019080838360005b83811015620010495780820151818401526020810190506200102c565b50505050905090810190601f168015620010775780820380516001836020036101000a031916815260200191505b50955050505050506020604051808303818588803b15156200109857600080fd5b5af11515620010a657600080fd5b505050506040518051905091505b5092915050565b600080620010f1731d3b2638a7cc9f2cb3d298a3da7a90b67e5506ed620007a06401000000000262001229176401000000009004565b1115620011aa57731d3b2638a7cc9f2cb3d298a3da7a90b67e5506ed6000806101000a81548173ffffffffffffffffffffffffffffffffffffffff021916908373ffffffffffffffffffffffffffffffffffffffff160217905550620011a06040805190810160405280600b81526020017f6574685f6d61696e6e65740000000000000000000000000000000000000000008152506200164a64010000000002620016d4176401000000009004565b6001905062001647565b6000620011df73c03a2615d5efaf5f49f60b7bb6583eaec212fdf1620007a06401000000000262001229176401000000009004565b1115620012985773c03a2615d5efaf5f49f60b7bb6583eaec212fdf16000806101000a81548173ffffffffffffffffffffffffffffffffffffffff021916908373ffffffffffffffffffffffffffffffffffffffff1602179055506200128e6040805190810160405280600c81526020017f6574685f726f707374656e3300000000000000000000000000000000000000008152506200164a64010000000002620016d4176401000000009004565b6001905062001647565b6000620012cd73b7a07bcf2ba2f2703b24c0691b5278999c59ac7e620007a06401000000000262001229176401000000009004565b1115620013865773b7a07bcf2ba2f2703b24c0691b5278999c59ac7e6000806101000a81548173ffffffffffffffffffffffffffffffffffffffff021916908373ffffffffffffffffffffffffffffffffffffffff1602179055506200137c6040805190810160405280600981526020017f6574685f6b6f76616e00000000000000000000000000000000000000000000008152506200164a64010000000002620016d4176401000000009004565b6001905062001647565b6000620013bb73146500cfd35b22e4a392fe0adc06de1a1368ed48620007a06401000000000262001229176401000000009004565b1115620014745773146500cfd35b22e4a392fe0adc06de1a1368ed486000806101000a81548173ffffffffffffffffffffffffffffffffffffffff021916908373ffffffffffffffffffffffffffffffffffffffff1602179055506200146a6040805190810160405280600b81526020017f6574685f72696e6b6562790000000000000000000000000000000000000000008152506200164a64010000000002620016d4176401000000009004565b6001905062001647565b6000620014a9736f485c8bf6fc43ea212e93bbf8ce046c7f1cb475620007a06401000000000262001229176401000000009004565b11156200150e57736f485c8bf6fc43ea212e93bbf8ce046c7f1cb4756000806101000a81548173ffffffffffffffffffffffffffffffffffffffff021916908373ffffffffffffffffffffffffffffffffffffffff1602179055506001905062001647565b6000620015437320e12a1f859b3feae5fb2a0a32c18f5a65555bbf620007a06401000000000262001229176401000000009004565b1115620015a8577320e12a1f859b3feae5fb2a0a32c18f5a65555bbf6000806101000a81548173ffffffffffffffffffffffffffffffffffffffff021916908373ffffffffffffffffffffffffffffffffffffffff1602179055506001905062001647565b6000620015dd7351efaf4c8b3c9afbd5ab9f4bbc82784ab6ef8faa620007a06401000000000262001229176401000000009004565b111562001642577351efaf4c8b3c9afbd5ab9f4bbc82784ab6ef8faa6000806101000a81548173ffffffffffffffffffffffffffffffffffffffff021916908373ffffffffffffffffffffffffffffffffffffffff1602179055506001905062001647565b600090505b90565b80600290805190602001906200166292919062001666565b5050565b828054600181600116156101000203166002900490600052602060002090601f016020900481019282601f10620016a957805160ff1916838001178555620016da565b82800160010185558215620016da579182015b82811115620016d9578251825591602001919060010190620016bc565b5b509050620016e99190620016ed565b5090565b6200171291905b808211156200170e576000816000905550600101620016f4565b5090565b90565b611af380620017256000396000f30060606040526004361061006d576000357c0100000000000000000000000000000000000000000000000000000000900463ffffffff16806312065fe01461007d57806327dc297e146100a657806338bbfa501461011057806373db0844146101bd578063a2e620451461024b575b341561007857600080fd5b600080fd5b341561008857600080fd5b610090610255565b6040518082815260200191505060405180910390f35b34156100b157600080fd5b61010e60048080356000191690602001909190803590602001908201803590602001908080601f01602080910402602001604051908101604052809392919081815260200183838082843782019150505050505091905050610274565b005b341561011b57600080fd5b6101bb60048080356000191690602001909190803590602001908201803590602001908080601f0160208091040260200160405190810160405280939291908181526020018383808284378201915050505050509190803590602001908201803590602001908080601f016020809104026020016040519081016040528093929190818152602001838380828437820191505050505050919050506102a6565b005b34156101c857600080fd5b6101d06103c5565b6040518080602001828103825283818151815260200191508051906020019080838360005b838110156102105780820151818401526020810190506101f5565b50505050905090810190601f16801561023d5780820380516001836020036101000a031916815260200191505b509250505060405180910390f35b610253610463565b005b60003073ffffffffffffffffffffffffffffffffffffffff1631905090565b6102a2828260006040518059106102885750595b9080825280601f01601f19166020018201604052506102a6565b5050565b6102ae6106cb565b73ffffffffffffffffffffffffffffffffffffffff163373ffffffffffffffffffffffffffffffffffffffff161415156102e757600080fd5b81600690805190602001906102fd9291906116ee565b507f221dd4a47b82d98e10a2a0ebcfdd3314637ca70f414c6987ea6774a907cc06c2600660405180806020018281038252838181546001816001161561010002031660029004815260200191508054600181600116156101000203166002900480156103aa5780601f1061037f576101008083540402835291602001916103aa565b820191906000526020600020905b81548152906001019060200180831161038d57829003601f168201915b50509250505060405180910390a16103c0610463565b505050565b60068054600181600116156101000203166002900480601f01602080910402602001604051908101604052809291908181526020018280546001816001161561010002031660029004801561045b5780601f106104305761010080835404028352916020019161045b565b820191906000526020600020905b81548152906001019060200180831161043e57829003601f168201915b505050505081565b3073ffffffffffffffffffffffffffffffffffffffff16316104b96040805190810160405280600381526020017f55524c00000000000000000000000000000000000000000000000000000000008152506109ba565b1115610578577ffee95ecae0c8f7f0743ec0ad254c78ab75e5ecca9f1ddcd9f11f9a98124b96bc60405180806020018281038252604b8152602001807f4f7261636c697a6520717565727920776173204e4f542073656e742c20706c6581526020017f6173652061646420736f6d652045544820746f20636f76657220666f7220746881526020017f652071756572792066656500000000000000000000000000000000000000000081525060600191505060405180910390a16106c9565b7ffee95ecae0c8f7f0743ec0ad254c78ab75e5ecca9f1ddcd9f11f9a98124b96bc6040518080602001828103825260358152602001807f4f7261636c697a65207175657279207761732073656e742c207374616e64696e81526020017f6720627920666f722074686520616e737765722e2e000000000000000000000081525060400191505060405180910390a16106c76040805190810160405280600381526020017f55524c0000000000000000000000000000000000000000000000000000000000815250608060405190810160405280604181526020017f6a736f6e2868747470733a2f2f6170692e636f696e626173652e636f6d2f763281526020017f2f7072696365732f4554482d5553442f73706f74292e646174612e616d6f756e81526020017f7400000000000000000000000000000000000000000000000000000000000000815250610d1b565b505b565b6000806000809054906101000a900473ffffffffffffffffffffffffffffffffffffffff1673ffffffffffffffffffffffffffffffffffffffff16148061073b575060006107396000809054906101000a900473ffffffffffffffffffffffffffffffffffffffff16611229565b145b1561074c5761074a6000611234565b505b6000809054906101000a900473ffffffffffffffffffffffffffffffffffffffff1673ffffffffffffffffffffffffffffffffffffffff166338cc48316040518163ffffffff167c0100000000000000000000000000000000000000000000000000000000028152600401602060405180830381600087803b15156107d057600080fd5b5af115156107dd57600080fd5b5050506040518051905073ffffffffffffffffffffffffffffffffffffffff16600160009054906101000a900473ffffffffffffffffffffffffffffffffffffffff1673ffffffffffffffffffffffffffffffffffffffff16141515610919576000809054906101000a900473ffffffffffffffffffffffffffffffffffffffff1673ffffffffffffffffffffffffffffffffffffffff166338cc48316040518163ffffffff167c0100000000000000000000000000000000000000000000000000000000028152600401602060405180830381600087803b15156108c157600080fd5b5af115156108ce57600080fd5b50505060405180519050600160006101000a81548173ffffffffffffffffffffffffffffffffffffffff021916908373ffffffffffffffffffffffffffffffffffffffff1602179055505b600160009054906101000a900473ffffffffffffffffffffffffffffffffffffffff1673ffffffffffffffffffffffffffffffffffffffff1663c281d19e6040518163ffffffff167c0100000000000000000000000000000000000000000000000000000000028152600401602060405180830381600087803b151561099e57600080fd5b5af115156109ab57600080fd5b50505060405180519050905090565b6000806000809054906101000a900473ffffffffffffffffffffffffffffffffffffffff1673ffffffffffffffffffffffffffffffffffffffff161480610a2a57506000610a286000809054906101000a900473ffffffffffffffffffffffffffffffffffffffff16611229565b145b15610a3b57610a396000611234565b505b6000809054906101000a900473ffffffffffffffffffffffffffffffffffffffff1673ffffffffffffffffffffffffffffffffffffffff166338cc48316040518163ffffffff167c0100000000000000000000000000000000000000000000000000000000028152600401602060405180830381600087803b1515610abf57600080fd5b5af11515610acc57600080fd5b5050506040518051905073ffffffffffffffffffffffffffffffffffffffff16600160009054906101000a900473ffffffffffffffffffffffffffffffffffffffff1673ffffffffffffffffffffffffffffffffffffffff16141515610c08576000809054906101000a900473ffffffffffffffffffffffffffffffffffffffff1673ffffffffffffffffffffffffffffffffffffffff166338cc48316040518163ffffffff167c0100000000000000000000000000000000000000000000000000000000028152600401602060405180830381600087803b1515610bb057600080fd5b5af11515610bbd57600080fd5b50505060405180519050600160006101000a81548173ffffffffffffffffffffffffffffffffffffffff021916908373ffffffffffffffffffffffffffffffffffffffff1602179055505b600160009054906101000a900473ffffffffffffffffffffffffffffffffffffffff1673ffffffffffffffffffffffffffffffffffffffff1663524f3889836040518263ffffffff167c01000000000000000000000000000000000000000000000000000000000281526004018080602001828103825283818151815260200191508051906020019080838360005b83811015610cb2578082015181840152602081019050610c97565b50505050905090810190601f168015610cdf5780820380516001836020036101000a031916815260200191505b5092505050602060405180830381600087803b1515610cfd57600080fd5b5af11515610d0a57600080fd5b505050604051805190509050919050565b60008060008060009054906101000a900473ffffffffffffffffffffffffffffffffffffffff1673ffffffffffffffffffffffffffffffffffffffff161480610d8d57506000610d8b6000809054906101000a900473ffffffffffffffffffffffffffffffffffffffff16611229565b145b15610d9e57610d9c6000611234565b505b6000809054906101000a900473ffffffffffffffffffffffffffffffffffffffff1673ffffffffffffffffffffffffffffffffffffffff166338cc48316040518163ffffffff167c0100000000000000000000000000000000000000000000000000000000028152600401602060405180830381600087803b1515610e2257600080fd5b5af11515610e2f57600080fd5b5050506040518051905073ffffffffffffffffffffffffffffffffffffffff16600160009054906101000a900473ffffffffffffffffffffffffffffffffffffffff1673ffffffffffffffffffffffffffffffffffffffff16141515610f6b576000809054906101000a900473ffffffffffffffffffffffffffffffffffffffff1673ffffffffffffffffffffffffffffffffffffffff166338cc48316040518163ffffffff167c0100000000000000000000000000000000000000000000000000000000028152600401602060405180830381600087803b1515610f1357600080fd5b5af11515610f2057600080fd5b50505060405180519050600160006101000a81548173ffffffffffffffffffffffffffffffffffffffff021916908373ffffffffffffffffffffffffffffffffffffffff1602179055505b600160009054906101000a900473ffffffffffffffffffffffffffffffffffffffff1673ffffffffffffffffffffffffffffffffffffffff1663524f3889856040518263ffffffff167c01000000000000000000000000000000000000000000000000000000000281526004018080602001828103825283818151815260200191508051906020019080838360005b83811015611015578082015181840152602081019050610ffa565b50505050905090810190601f1680156110425780820380516001836020036101000a031916815260200191505b5092505050602060405180830381600087803b151561106057600080fd5b5af1151561106d57600080fd5b50505060405180519050905062030d403a02670de0b6b3a76400000181111561109c5760006001029150611222565b600160009054906101000a900473ffffffffffffffffffffffffffffffffffffffff1673ffffffffffffffffffffffffffffffffffffffff1663adf59f9982600087876040518563ffffffff167c0100000000000000000000000000000000000000000000000000000000028152600401808481526020018060200180602001838103835285818151815260200191508051906020019080838360005b83811015611154578082015181840152602081019050611139565b50505050905090810190601f1680156111815780820380516001836020036101000a031916815260200191505b50838103825284818151815260200191508051906020019080838360005b838110156111ba57808201518184015260208101905061119f565b50505050905090810190601f1680156111e75780820380516001836020036101000a031916815260200191505b50955050505050506020604051808303818588803b151561120757600080fd5b5af1151561121457600080fd5b505050506040518051905091505b5092915050565b6000813b9050919050565b600061123e611245565b9050919050565b600080611265731d3b2638a7cc9f2cb3d298a3da7a90b67e5506ed611229565b111561130657731d3b2638a7cc9f2cb3d298a3da7a90b67e5506ed6000806101000a81548173ffffffffffffffffffffffffffffffffffffffff021916908373ffffffffffffffffffffffffffffffffffffffff1602179055506112fd6040805190810160405280600b81526020017f6574685f6d61696e6e65740000000000000000000000000000000000000000008152506116d4565b600190506116d1565b600061132573c03a2615d5efaf5f49f60b7bb6583eaec212fdf1611229565b11156113c65773c03a2615d5efaf5f49f60b7bb6583eaec212fdf16000806101000a81548173ffffffffffffffffffffffffffffffffffffffff021916908373ffffffffffffffffffffffffffffffffffffffff1602179055506113bd6040805190810160405280600c81526020017f6574685f726f707374656e3300000000000000000000000000000000000000008152506116d4565b600190506116d1565b60006113e573b7a07bcf2ba2f2703b24c0691b5278999c59ac7e611229565b11156114865773b7a07bcf2ba2f2703b24c0691b5278999c59ac7e6000806101000a81548173ffffffffffffffffffffffffffffffffffffffff021916908373ffffffffffffffffffffffffffffffffffffffff16021790555061147d6040805190810160405280600981526020017f6574685f6b6f76616e00000000000000000000000000000000000000000000008152506116d4565b600190506116d1565b60006114a573146500cfd35b22e4a392fe0adc06de1a1368ed48611229565b11156115465773146500cfd35b22e4a392fe0adc06de1a1368ed486000806101000a81548173ffffffffffffffffffffffffffffffffffffffff021916908373ffffffffffffffffffffffffffffffffffffffff16021790555061153d6040805190810160405280600b81526020017f6574685f72696e6b6562790000000000000000000000000000000000000000008152506116d4565b600190506116d1565b6000611565736f485c8bf6fc43ea212e93bbf8ce046c7f1cb475611229565b11156115c857736f485c8bf6fc43ea212e93bbf8ce046c7f1cb4756000806101000a81548173ffffffffffffffffffffffffffffffffffffffff021916908373ffffffffffffffffffffffffffffffffffffffff160217905550600190506116d1565b60006115e77320e12a1f859b3feae5fb2a0a32c18f5a65555bbf611229565b111561164a577320e12a1f859b3feae5fb2a0a32c18f5a65555bbf6000806101000a81548173ffffffffffffffffffffffffffffffffffffffff021916908373ffffffffffffffffffffffffffffffffffffffff160217905550600190506116d1565b60006116697351efaf4c8b3c9afbd5ab9f4bbc82784ab6ef8faa611229565b11156116cc577351efaf4c8b3c9afbd5ab9f4bbc82784ab6ef8faa6000806101000a81548173ffffffffffffffffffffffffffffffffffffffff021916908373ffffffffffffffffffffffffffffffffffffffff160217905550600190506116d1565b600090505b90565b80600290805190602001906116ea9291906116ee565b5050565b828054600181600116156101000203166002900490600052602060002090601f016020900481019282601f1061172f57805160ff191683800117855561175d565b8280016001018555821561175d579182015b8281111561175c578251825591602001919060010190611741565b5b50905061176a919061176e565b5090565b61179091905b8082111561178c576000816000905550600101611774565b5090565b90565b60008060009054906101000a900473ffffffffffffffffffffffffffffffffffffffff1673ffffffffffffffffffffffffffffffffffffffff161480611802575060006118006000809054906101000a900473ffffffffffffffffffffffffffffffffffffffff16611229565b145b15611813576118116000611234565b505b6000809054906101000a900473ffffffffffffffffffffffffffffffffffffffff1673ffffffffffffffffffffffffffffffffffffffff166338cc48316040518163ffffffff167c0100000000000000000000000000000000000000000000000000000000028152600401602060405180830381600087803b151561189757600080fd5b5af115156118a457600080fd5b5050506040518051905073ffffffffffffffffffffffffffffffffffffffff16600160009054906101000a900473ffffffffffffffffffffffffffffffffffffffff1673ffffffffffffffffffffffffffffffffffffffff161415156119e0576000809054906101000a900473ffffffffffffffffffffffffffffffffffffffff1673ffffffffffffffffffffffffffffffffffffffff166338cc48316040518163ffffffff167c0100000000000000000000000000000000000000000000000000000000028152600401602060405180830381600087803b151561198857600080fd5b5af1151561199557600080fd5b50505060405180519050600160006101000a81548173ffffffffffffffffffffffffffffffffffffffff021916908373ffffffffffffffffffffffffffffffffffffffff1602179055505b600160009054906101000a900473ffffffffffffffffffffffffffffffffffffffff1673ffffffffffffffffffffffffffffffffffffffff1663688dcfd7826040518263ffffffff167c010000000000000000000000000000000000000000000000000000000002815260040180827effffffffffffffffffffffffffffffffffffffffffffffffffffffffffffff19167effffffffffffffffffffffffffffffffffffffffffffffffffffffffffffff19168152602001915050600060405180830381600087803b1515611ab457600080fd5b5af11515611ac157600080fd5b505050505600a165627a7a72305820c0431d88592d37816724000a4f081e320898c0aafa0b130cc203c9c1bdd686b60029",
  "source": "pragma solidity ^0.4.21;\nimport \"installed_contracts/oraclize-api/contracts/usingOraclize.sol\";\n\ncontract OraclizeTest is usingOraclize {\n\n    address owner;\n    string public ETHUSD;\n\n    event LogInfo(string description);\n    event LogPriceUpdate(string price);\n    event LogUpdate(address indexed _owner, uint indexed _balance);\n\n    // Constructor\n    function OraclizeTest()\n    payable\n    public {\n        owner = msg.sender;\n\n        emit LogUpdate(owner, address(this).balance);\n\n        // Replace the next line with your version:\n        OAR = OraclizeAddrResolverI(0x98d52C3C3959B35496477510920e2C99E6e9cAC0);\n\n        oraclize_setProof(proofType_TLSNotary | proofStorage_IPFS);\n        update();\n    }\n\n    // Fallback function\n    function()\n    public{\n        revert();\n    }\n\n    function __callback(bytes32 myid, string result, bytes proof)\n    public {\n        require(msg.sender == oraclize_cbAddress());\n\n        ETHUSD = result;\n        emit LogPriceUpdate(ETHUSD);\n        update();\n    }\n\n    function getBalance()\n    public\n    returns (uint _balance) {\n        return address(this).balance;\n    }\n\n    function update()\n    payable\n    public {\n        // Check if we have enough remaining funds\n        if (oraclize_getPrice(\"URL\") > address(this).balance) {\n            emit LogInfo(\"Oraclize query was NOT sent, please add some ETH to cover for the query fee\");\n        } else {\n            emit LogInfo(\"Oraclize query was sent, standing by for the answer..\");\n\n            // Using XPath to to fetch the right element in the JSON response\n            oraclize_query(\"URL\", \"json(https://api.coinbase.com/v2/prices/ETH-USD/spot).data.amount\");\n        }\n    }\n\n}\n",
  "sourcePath": "/Users/WWWillems/Dev/DAPPS/oraclize-test/contracts/OraclizeTest.sol",
  "compiler": {
    "name": "solc",
    "version": "0.4.21+commit.dfe3193c.Emscripten.clang"
  },
  "schemaVersion": "2.0.0",
  "updatedAt": "2018-05-07T14:09:41.325Z"
}